{
  "contractName": "KVStore",
  "abi": [
    {
      "anonymous": false,
      "inputs": [
        {
          "indexed": false,
          "internalType": "address",
          "name": "currentAddress",
          "type": "address"
        }
      ],
      "name": "PGPset",
      "type": "event"
    },
    {
      "constant": true,
      "inputs": [
        {
          "internalType": "address",
          "name": "_account",
          "type": "address"
        },
        {
          "internalType": "string",
          "name": "_key",
          "type": "string"
        }
      ],
      "name": "get",
      "outputs": [
        {
          "internalType": "string",
          "name": "",
          "type": "string"
        }
      ],
      "payable": false,
      "stateMutability": "view",
      "type": "function"
    },
    {
      "constant": false,
      "inputs": [
        {
          "internalType": "string",
          "name": "_key",
          "type": "string"
        },
        {
          "internalType": "string",
          "name": "_value",
          "type": "string"
        }
      ],
      "name": "set",
      "outputs": [],
      "payable": false,
      "stateMutability": "nonpayable",
      "type": "function"
    },
    {
      "constant": false,
      "inputs": [
        {
          "internalType": "string",
          "name": "_fingerprint",
          "type": "string"
        },
        {
          "internalType": "string",
          "name": "publicKey",
          "type": "string"
        }
      ],
      "name": "setPGP",
      "outputs": [],
      "payable": false,
      "stateMutability": "nonpayable",
      "type": "function"
    },
    {
      "constant": true,
      "inputs": [
        {
          "internalType": "address",
          "name": "_account",
          "type": "address"
        }
      ],
      "name": "getAllPGP",
      "outputs": [
        {
          "internalType": "string[]",
          "name": "",
          "type": "string[]"
        }
      ],
      "payable": false,
      "stateMutability": "view",
      "type": "function"
    }
  ],
  "bytecode": "0x608060405234801561001057600080fd5b50610aea806100206000396000f3fe608060405234801561001057600080fd5b506004361061004b5760003560e01c8062382f8e14610050578063a097d7991461006c578063e942b5161461009c578063fc2525ab146100b8575b600080fd5b61006a60048036036100659190810190610683565b6100e8565b005b61008660048036036100819190810190610606565b610241565b604051610093919061089c565b60405180910390f35b6100b660048036036100b19190810190610683565b610369565b005b6100d260048036036100cd919081019061062f565b6103fb565b6040516100df91906108be565b60405180910390f35b6001826040516100f8919061086a565b908152602001604051809103902060009054906101000a900460ff1615610154576040517f08c379a000000000000000000000000000000000000000000000000000000000815260040161014b906108e0565b60405180910390fd5b60018083604051610165919061086a565b908152602001604051809103902060006101000a81548160ff021916908315150217905550600260003373ffffffffffffffffffffffffffffffffffffffff1673ffffffffffffffffffffffffffffffffffffffff1681526020019081526020016000208190806001815401808255809150509060018203906000526020600020016000909192909190915090805190602001906102049291906104f8565b50507f9d40ee05a743a38642d2ce63abdcc37f6b709d7b6d468c69aa5c3800c00da9f2336040516102359190610881565b60405180910390a15050565b6060600260008373ffffffffffffffffffffffffffffffffffffffff1673ffffffffffffffffffffffffffffffffffffffff168152602001908152602001600020805480602002602001604051908101604052809291908181526020016000905b8282101561035e578382906000526020600020018054600181600116156101000203166002900480601f01602080910402602001604051908101604052809291908181526020018280546001816001161561010002031660029004801561034a5780601f1061031f5761010080835404028352916020019161034a565b820191906000526020600020905b81548152906001019060200180831161032d57829003601f168201915b5050505050815260200190600101906102a2565b505050509050919050565b6103e882511115801561037f57506103e8815111155b61038857600080fd5b806000803373ffffffffffffffffffffffffffffffffffffffff1673ffffffffffffffffffffffffffffffffffffffff168152602001908152602001600020836040516103d5919061086a565b908152602001604051809103902090805190602001906103f69291906104f8565b505050565b60606000808473ffffffffffffffffffffffffffffffffffffffff1673ffffffffffffffffffffffffffffffffffffffff16815260200190815260200160002082604051610449919061086a565b90815260200160405180910390208054600181600116156101000203166002900480601f0160208091040260200160405190810160405280929190818152602001828054600181600116156101000203166002900480156104eb5780601f106104c0576101008083540402835291602001916104eb565b820191906000526020600020905b8154815290600101906020018083116104ce57829003601f168201915b5050505050905092915050565b828054600181600116156101000203166002900490600052602060002090601f016020900481019282601f1061053957805160ff1916838001178555610567565b82800160010185558215610567579182015b8281111561056657825182559160200191906001019061054b565b5b5090506105749190610578565b5090565b61059a91905b8082111561059657600081600090555060010161057e565b5090565b90565b6000813590506105ac81610a90565b92915050565b600082601f8301126105c357600080fd5b81356105d66105d18261092d565b610900565b915080825260208301602083018583830111156105f257600080fd5b6105fd838284610a3d565b50505092915050565b60006020828403121561061857600080fd5b60006106268482850161059d565b91505092915050565b6000806040838503121561064257600080fd5b60006106508582860161059d565b925050602083013567ffffffffffffffff81111561066d57600080fd5b610679858286016105b2565b9150509250929050565b6000806040838503121561069657600080fd5b600083013567ffffffffffffffff8111156106b057600080fd5b6106bc858286016105b2565b925050602083013567ffffffffffffffff8111156106d957600080fd5b6106e5858286016105b2565b9150509250929050565b60006106fb83836107f1565b905092915050565b61070c81610a07565b82525050565b600061071d82610969565b6107278185610997565b93508360208202850161073985610959565b8060005b85811015610775578484038952815161075685826106ef565b94506107618361098a565b925060208a0199505060018101905061073d565b50829750879550505050505092915050565b60006107928261097f565b61079c81856109b9565b93506107ac818560208601610a4c565b6107b581610a7f565b840191505092915050565b60006107cb8261097f565b6107d581856109ca565b93506107e5818560208601610a4c565b80840191505092915050565b60006107fc82610974565b61080681856109a8565b9350610816818560208601610a4c565b61081f81610a7f565b840191505092915050565b60006108376010836109b9565b91507f70677020616c72656164792075736564000000000000000000000000000000006000830152602082019050919050565b600061087682846107c0565b915081905092915050565b60006020820190506108966000830184610703565b92915050565b600060208201905081810360008301526108b68184610712565b905092915050565b600060208201905081810360008301526108d88184610787565b905092915050565b600060208201905081810360008301526108f98161082a565b9050919050565b6000604051905081810181811067ffffffffffffffff8211171561092357600080fd5b8060405250919050565b600067ffffffffffffffff82111561094457600080fd5b601f19601f8301169050602081019050919050565b6000819050602082019050919050565b600081519050919050565b600081519050919050565b600081519050919050565b6000602082019050919050565b600082825260208201905092915050565b600082825260208201905092915050565b600082825260208201905092915050565b600081905092915050565b60006109e0826109e7565b9050919050565b600073ffffffffffffffffffffffffffffffffffffffff82169050919050565b6000610a1282610a19565b9050919050565b6000610a2482610a2b565b9050919050565b6000610a36826109e7565b9050919050565b82818337600083830152505050565b60005b83811015610a6a578082015181840152602081019050610a4f565b83811115610a79576000848401525b50505050565b6000601f19601f8301169050919050565b610a99816109d5565b8114610aa457600080fd5b5056fea365627a7a72315820594d3efa22c0b1f684b9e93be4fae15cbd2b618213cef2d31b098b86d457d91d6c6578706572696d656e74616cf564736f6c63430005100040",
  "source": "pragma solidity ^0.5.0;\npragma experimental ABIEncoderV2;\ncontract KVStore {\n    uint256 private constant MAX_STRING_LENGTH = 1000;\n    mapping(address => mapping(string => string)) private store;\n    mapping(string => bool) private checksum;\n    mapping(address => string[]) private pubkeyPGP;\n    event PGPset(address currentAddress);\n\n    function get(address _account, string memory _key)\n        public\n        view\n        returns (string memory)\n    {\n        return store[_account][_key];\n    }\n\n    function set(string memory _key, string memory _value) public {\n        require(\n            bytes(_key).length <= MAX_STRING_LENGTH &&\n                bytes(_value).length <= MAX_STRING_LENGTH\n        );\n        store[msg.sender][_key] = _value;\n    }\n\n    function setPGP(string memory _fingerprint,string memory publicKey) public {\n        require(!checksum[_fingerprint], \"pgp already used\");\n        checksum[_fingerprint] = true;\n        pubkeyPGP[msg.sender].push(publicKey);\n        emit PGPset(msg.sender);\n    }\n\n    function getAllPGP(address _account) public view returns (string[] memory) {\n        return pubkeyPGP[_account];\n    }\n\n}\n",
  "sourcePath": "/home/rinoa/projects/eth-kvstore/contracts/KVStore.sol",
  "compiler": {
    "name": "solc",
    "version": "0.5.16+commit.9c3226ce.Emscripten.clang"
  },
  "schemaVersion": "3.4.10",
  "updatedAt": "2022-10-05T05:44:22.890Z",
  "networkType": "ethereum",
  "devdoc": {
    "methods": {}
  },
  "userdoc": {
    "methods": {}
  }
}